{
  "contractName": "CoinFlip",
  "abi": [
    {
      "inputs": [],
      "payable": true,
      "stateMutability": "payable",
      "type": "constructor"
    },
    {
      "anonymous": false,
      "inputs": [
        {
          "indexed": false,
          "internalType": "address",
          "name": "owner",
          "type": "address"
        },
        {
          "indexed": false,
          "internalType": "uint256",
          "name": "amount",
          "type": "uint256"
        }
      ],
      "name": "Deposit",
      "type": "event"
    },
    {
      "anonymous": false,
      "inputs": [
        {
          "indexed": false,
          "internalType": "address",
          "name": "player",
          "type": "address"
        },
        {
          "indexed": false,
          "internalType": "uint256",
          "name": "amount",
          "type": "uint256"
        },
        {
          "indexed": false,
          "internalType": "bool",
          "name": "win",
          "type": "bool"
        },
        {
          "indexed": false,
          "internalType": "uint8",
          "name": "inp",
          "type": "uint8"
        },
        {
          "indexed": false,
          "internalType": "uint8",
          "name": "rand",
          "type": "uint8"
        },
        {
          "indexed": false,
          "internalType": "uint8",
          "name": "res",
          "type": "uint8"
        },
        {
          "indexed": false,
          "internalType": "uint8",
          "name": "count",
          "type": "uint8"
        }
      ],
      "name": "FlipCoin",
      "type": "event"
    },
    {
      "anonymous": false,
      "inputs": [
        {
          "indexed": false,
          "internalType": "address",
          "name": "owner",
          "type": "address"
        },
        {
          "indexed": false,
          "internalType": "uint256",
          "name": "amount",
          "type": "uint256"
        }
      ],
      "name": "Withdraw",
      "type": "event"
    },
    {
      "constant": true,
      "inputs": [],
      "name": "contractOwner",
      "outputs": [
        {
          "internalType": "address",
          "name": "",
          "type": "address"
        }
      ],
      "payable": false,
      "stateMutability": "view",
      "type": "function"
    },
    {
      "constant": false,
      "inputs": [],
      "name": "deposit",
      "outputs": [],
      "payable": true,
      "stateMutability": "payable",
      "type": "function"
    },
    {
      "constant": false,
      "inputs": [
        {
          "internalType": "uint256",
          "name": "amount",
          "type": "uint256"
        }
      ],
      "name": "withdraw",
      "outputs": [],
      "payable": false,
      "stateMutability": "nonpayable",
      "type": "function"
    },
    {
      "constant": false,
      "inputs": [
        {
          "internalType": "uint8",
          "name": "values",
          "type": "uint8"
        }
      ],
      "name": "flipCoin",
      "outputs": [
        {
          "internalType": "bool",
          "name": "",
          "type": "bool"
        }
      ],
      "payable": true,
      "stateMutability": "payable",
      "type": "function"
    }
  ],
  "bytecode": "0x6080604052336000800160006101000a81548173ffffffffffffffffffffffffffffffffffffffff021916908373ffffffffffffffffffffffffffffffffffffffff16021790555034600060010181905550610a03806100606000396000f3fe60806040526004361061003f5760003560e01c80632e1a7d4d146100445780636afa82ea1461007f578063ce606ee0146100c8578063d0e30db01461011f575b600080fd5b34801561005057600080fd5b5061007d6004803603602081101561006757600080fd5b8101908080359060200190929190505050610129565b005b6100ae6004803603602081101561009557600080fd5b81019080803560ff1690602001909291905050506103cc565b604051808215151515815260200191505060405180910390f35b3480156100d457600080fd5b506100dd61077e565b604051808273ffffffffffffffffffffffffffffffffffffffff1673ffffffffffffffffffffffffffffffffffffffff16815260200191505060405180910390f35b6101276107aa565b005b600180156101de576000800160009054906101000a900473ffffffffffffffffffffffffffffffffffffffff1673ffffffffffffffffffffffffffffffffffffffff163373ffffffffffffffffffffffffffffffffffffffff16146101d9576040517f08c379a000000000000000000000000000000000000000000000000000000000815260040180806020018281038252602381526020018061098b6023913960400191505060405180910390fd5b610288565b6000800160009054906101000a900473ffffffffffffffffffffffffffffffffffffffff1673ffffffffffffffffffffffffffffffffffffffff163373ffffffffffffffffffffffffffffffffffffffff161415610287576040517f08c379a00000000000000000000000000000000000000000000000000000000081526004018080602001828103825260218152602001806109ae6021913960400191505060405180910390fd5b5b816000600101541015610303576040517f08c379a000000000000000000000000000000000000000000000000000000000815260040180806020018281038252601d8152602001807f496e73756666696369656e7420636f6e74726163742062616c616e636500000081525060200191505060405180910390fd5b816000600101600082825403925050819055503373ffffffffffffffffffffffffffffffffffffffff166108fc839081150290604051600060405180830381858888f1935050505015801561035c573d6000803e3d6000fd5b507f884edad9ce6fa2440d8a54cc123490eb96d2768479d49ff9c7366125a94243643383604051808373ffffffffffffffffffffffffffffffffffffffff1673ffffffffffffffffffffffffffffffffffffffff1681526020018281526020019250505060405180910390a15050565b6000808015610482576000800160009054906101000a900473ffffffffffffffffffffffffffffffffffffffff1673ffffffffffffffffffffffffffffffffffffffff163373ffffffffffffffffffffffffffffffffffffffff161461047d576040517f08c379a000000000000000000000000000000000000000000000000000000000815260040180806020018281038252602381526020018061098b6023913960400191505060405180910390fd5b61052c565b6000800160009054906101000a900473ffffffffffffffffffffffffffffffffffffffff1673ffffffffffffffffffffffffffffffffffffffff163373ffffffffffffffffffffffffffffffffffffffff16141561052b576040517f08c379a00000000000000000000000000000000000000000000000000000000081526004018080602001828103825260218152602001806109ae6021913960400191505060405180910390fd5b5b3460006001015410156105a7576040517f08c379a000000000000000000000000000000000000000000000000000000000815260040180806020018281038252601d8152602001807f496e73756666696369656e7420636f6e74726163742062616c616e636500000081525060200191505060405180910390fd5b6000424460405160200180838152602001828152602001925050506040516020818303038152906040528051906020012060001c9050600081905060008090506000868316905060008090505b60078160ff1611610634576001808260ff1660020a60ff168460ff168161061757fe5b041660ff161415610629578260010192505b8060010190506105f4565b5060008260070360ff168360ff1611905080156106ad57346000600101600082825403925050819055503373ffffffffffffffffffffffffffffffffffffffff166108fc600234029081150290604051600060405180830381858888f193505050501580156106a7573d6000803e3d6000fd5b506106c1565b346000600101600082825401925050819055505b7f0488f080a413d4d2accd7c0e0a112076c2e282344384789cbbb90bedcb9d09383334838b888789604051808873ffffffffffffffffffffffffffffffffffffffff1673ffffffffffffffffffffffffffffffffffffffff168152602001878152602001861515151581526020018560ff1660ff1681526020018460ff1660ff1681526020018360ff1660ff1681526020018260ff1660ff16815260200197505050505050505060405180910390a1809650505050505050919050565b60008060000160009054906101000a900473ffffffffffffffffffffffffffffffffffffffff16905090565b6001801561085f576000800160009054906101000a900473ffffffffffffffffffffffffffffffffffffffff1673ffffffffffffffffffffffffffffffffffffffff163373ffffffffffffffffffffffffffffffffffffffff161461085a576040517f08c379a000000000000000000000000000000000000000000000000000000000815260040180806020018281038252602381526020018061098b6023913960400191505060405180910390fd5b610909565b6000800160009054906101000a900473ffffffffffffffffffffffffffffffffffffffff1673ffffffffffffffffffffffffffffffffffffffff163373ffffffffffffffffffffffffffffffffffffffff161415610908576040517f08c379a00000000000000000000000000000000000000000000000000000000081526004018080602001828103825260218152602001806109ae6021913960400191505060405180910390fd5b5b346000600101600082825401925050819055507fe1fffcc4923d04b559f4d29a8bfc6cda04eb5b0d3c460751c2402c5c5cc9109c3334604051808373ffffffffffffffffffffffffffffffffffffffff1673ffffffffffffffffffffffffffffffffffffffff1681526020018281526020019250505060405180910390a15056fe46756e6374696f6e20726573657276656420746f20636f6e7472616374206f776e657246756e6374696f6e20726573657276656420746f20706c6179657273206f6e6c79a265627a7a72315820105e49480710d912e0302a5ba143b20dffc0d238205578617abc15a68dba1aea64736f6c63430005100032",
  "source": "/*\n * Solidity Contract : CoinFlip\n * Compiler Version  : pragma solidity 0.5.16;\n */\npragma solidity 0.5.16;\n\ncontract CoinFlip {\n\n     struct Owner {\n          address wallet;\n          uint256 balance;\n     }\n\n     Owner private owner;\n\n     constructor() public payable {\n          owner.wallet = msg.sender;\n          owner.balance = msg.value;\n     }\n\n     modifier _owner(bool flag) {\n          if (flag) require(msg.sender == owner.wallet, \"Function reserved to contract owner\");\n               else require(msg.sender != owner.wallet, \"Function reserved to players only\");\n          _;\n     }\n\n     function contractOwner() public view returns(address) {\n          return (owner.wallet);\n     }\n\n     event Deposit(address owner, uint256 amount);\n     function deposit() public payable _owner(true) {\n          owner.balance += msg.value;\n          emit Deposit(msg.sender, msg.value);\n     }\n\n     event Withdraw(address owner, uint256 amount);\n     function withdraw(uint256 amount) public _owner(true) {\n          require(owner.balance >= amount, \"Insufficient contract balance\");\n          owner.balance -= amount;\n          msg.sender.transfer(amount);\n          emit Withdraw(msg.sender, amount);\n     }\n\n\n\n\n\n\n\n     event FlipCoin(address player, uint256 amount, bool win, uint8 inp, uint8 rand, uint8 res, uint8 count);\n     function flipCoin(uint8 values) public payable _owner(false) returns (bool) {\n          require(owner.balance >= msg.value, \"Insufficient contract balance\");\n          uint256 randomize = uint256(keccak256(abi.encodePacked(block.timestamp, block.difficulty)));\n          uint8 random_bits = (uint8)(randomize); uint8 win_count = 0;\n\n          uint8 result = (random_bits & values);\n\n\n\n\n          for (uint8 i = 0; i <= 7; ++i) {\n\n               //if ((result & (1 << i)) == 1) {\n               if (((result / 2**i) & 1) == 1) {\n                    ++win_count;\n               }\n          }\n\n          bool flag = (win_count > (7 - win_count));\n          if (flag) {\n               owner.balance -= msg.value;\n               msg.sender.transfer(msg.value * 2);\n          } else {\n               owner.balance += msg.value;\n          }\n\n          emit FlipCoin(msg.sender, msg.value, flag, values, random_bits, result, win_count);\n          return flag;\n     }\n\n}\n",
  "sourcePath": "/home/nielvosloo/Workspace/InspectraNet/IvanOnTech/contracts/enabled/CoinFlip.sol",
  "compiler": {
    "name": "solc",
    "version": "0.5.16+commit.9c3226ce.Emscripten.clang"
  },
  "schemaVersion": "3.2.3",
  "updatedAt": "2021-03-25T15:35:57.639Z",
  "networkType": "ethereum",
  "devdoc": {
    "methods": {}
  },
  "userdoc": {
    "methods": {}
  }
}